:020000041000EA
:1000000000B5324B212058609868022188439860DF
:10001000D860186158612E4B002199600221596106
:100020000121F02299502B49196001219960352056
:1000300000F044F80222904214D00621196600F024
:1000400034F8196E01211966002018661A6600F04E
:100050002CF8196E196E196E052000F02FF8012189
:100060000842F9D1002199601B49196000215960AB
:100070001A491B48016001219960EB211966A021F2
:10008000196600F012F800219960164914480160C1
:100090000121996001BC002800D000471248134993
:1000A000086003C880F30888084703B5996A0420EC
:1000B0000142FBD001200142F8D103BD02B5186610
:1000C0001866FFF7F2FF186E186E02BD00000240BE
:1000D000000000180000070000035F00212200005C
:1000E000F4000018222000A00001001008ED00E03C
:1000F00000000000000000000000000074B24E7A12
:1001000000200420F7010010CB010010CD010010E9
:10011000C9010010C9010010C9010010C901001077
:10012000C9010010C9010010C9010010CF01001061
:10013000C9010010C9010010D1010010D301001045
:10014000C1010010C1010010C1010010C101001067
:10015000C1010010C1010010C1010010C101001057
:10016000C1010010C1010010C1010010C101001047
:10017000C1010010C1010010C1010010C101001037
:10018000C1010010C1010010C1010010C101001027
:10019000C1010010C1010010C1010010C101001017
:1001A000C1010010C1010010C1010010C101001007
:1001B000C1010010C1010010C1010010C1010010F7
:1001C000EFF30580103800BE00BE00BE00BE00BECA
:1001D00000BE00BEF2EB887190020010AC0200106D
:1001E0003802001090A31AE721482249086006C887
:1001F00081F30888104720480068002801D01C4877
:10020000F3E70DA40ECC002902D000F012F8F9E7B4
:100210001A491B4A002000E001C19142FCD1194952
:100220008847194988471949884700BEFDE701C931
:1002300001C29A42FBD37047AC020010C0000020FC
:10024000683A0020543C0010703A00201448002006
:10025000F84900100000042000000420F8490010B4
:10026000001004200010042000000000704700006F
:100270000000000008ED00E0000000D0144800205D
:100280003C4D002079310020A9150020713100205B
:10029000D4460020E0460020EC460020F84600202E
:0C02A00004470020104700201C470020ED
:1002AC00F8B5C04606480749091A8B10C90FC9187A
:1002BC0010B5491003D0044B002B00D0984710BD4B
:1002CC00144800201448002000000000054B10B515
:1002DC00002B03D00449054800E000BFFFF7E2FF04
:1002EC0010BDC04600000000004D0020683A002000
:1002FC00A423082130B5FF24134A1448D1501449C3
:10030C0002680B680D689B1AA343521BD21802603B
:10031C00104A1B02944612680F4853401B0C0F4D99
:10032C001B0403602A684B6849689B1AA343521A42
:10033C00D2182A6062461B0212681B0C53401B0425
:10034C001B0C036030BDC04600000540C04B0020B4
:10035C00344700204800054048100540C44B00209D
:10036C00F0B5502387B017256A460405240F1C43AB
:10037C006D44AF3393750F00287002F0E7F800233B
:10038C00194A80185941002902DA012017494042C4
:10039C0000230290039100932A002100144801339A
:1003AC0003F0DEFB00281ADD02F0D0F800230E4A21
:1003BC0080185941002902DA01200C4940420023DF
:1003CC0016220290039100932100094801336A44DC
:1003DC0003F0E6FB002802DD6B46987D02E001236A
:1003EC0000203B7007B0F0BD10270000FFFFFF7F1F
:1003FC00C0470020F0B54E46DE46574645463C23E6
:10040C00E0B5FF33C35C040099469E235B00C35CDC
:10041C0085B04B4503D04B46002B00D16FE18A23AE
:10042C005B00E25ADB4BDC49E3589A46B4335B0081
:10043C00E3189A80F823E3585800C018C00002F063
:10044C007DFD8622FC235200E358A2580C3817007D
:10045C0006005800C018D049C00002F06FFD3AB237
:10046C00D3009B18DA00DB175B055B0D0C389B186F
:10047C008519DB128822ED18802352005B00E358AB
:10048C00A25858001700C018C349C00002F056FD0E
:10049C003AB2D3009B18DA00DB175B055B0D0C3806
:1004AC009B18DB128619F6184B46012B00D19FE1E5
:1004BC002B000C33B949182B00DC16E118239B00D8
:1004CC00CB58029333000C33182B00DC09E11823B2
:1004DC009B00CB580193B24BE258B24B0092E058C0
:1004EC0053015B0D190001335B051B0DB4316933EE
:1004FC004A00FF33E318A2180421525E0427D95F87
:10050C00009B891A1B041B0C4B431B149B180201E8
:10051C00FF2803DD80229200121A12015A43131392
:10052C009B46A14BE3589C46A04BE15863465B01AC
:10053C005B0D1A0001335B051B0DB432693352009D
:10054C00FF33A218E3180427D25F0427DB5F9F1A3E
:10055C0063461B041B0C7B431B149B18FF2900DDFB
:10056C00C7E00A019046F2225F46A7524246534327
:10057C00F4221B13A352029F009A894BD219E2500A
:10058C00019A894F6244E251884F864A0130013109
:10059C00A050E1518027BF00B84208DB0020A050DA
:1005AC00524683481218834812040240E2508023BA
:1005BC009B0099420ADB00227C4BE25053467E4A58
:1005CC009B187C4A1B041340774AA3506801401BBC
:1005DC00800040190C21C00002F0B0FCD023D422C2
:1005EC00E358A2585843754B401243431B139B18B6
:1005FC00DA43D217134080221203934200DB704B74
:10060C005A01D21A70019200801BD3186D4D8000D4
:10061C00DB1180192B600C21C00002F08FFCE02351
:10062C00E422E358A2585843644B401243431B1333
:10063C009B18DA43D217134080221203934200DB3B
:10064C005F4B5A01D21A9200D318DB116B605E4DCE
:10065C005E482B685E491B041B0C03602B685D4ACB
:10066C001B0C1B0403600B685B4E1B041B0C136000
:10067C000B685A4F1B0C1B0413603368BC461B04DD
:10068C001B0C3B6033681B0C1B043B604B46012B63
:10069C005DD18C235B01E35C062B39D0504AD25CD4
:1006AC0053081F2A00D993E1072119408B005B18CE
:1006BC004C499B0059180868D2074B49D2174A403D
:1006CC004A4982435B181A60324AA35801335B05CE
:1006DC005B0DA35005B0F0BCBB46B246A946A04684
:1006EC00F0BDDA43D2171340F2E6DA43D2171340C7
:1006FC00E5E680229200521A1201904633E78C25CF
:10070C006D01405D0721013002F018FC615586E651
:10071C002B68DB431B041B0C03602B68DB431B0C9B
:10072C001B0403600B68DB431B041B0C13600B687E
:10073C00DB431B0C1B0413603368DB431B041B0CD7
:10074C003B603368DB431B0C1B043B60BCE740275E
:10075C002B687B401B041B0C036080232D68DB0380
:10076C005D402D0C2D040560086878400004000CD9
:10077C00106009685940090C09041160614632681F
:10078C007A401204120C0A60326853401B0C1B0492
:10079C000B6099E76C110000FF0F00003846002039
:1007AC007011000078110000741100007C11000021
:1007BC0000FEFFFF0000FF0700FDFFFF2506000005
:1007CC00FFFF070034470020700005407010054003
:1007DC0084000540841005409800054098100540A1
:1007EC00CC4600200C000540FFFF00000C1005401B
:1007FC000C21280002F0A2FB0C210090070028001D
:10080C0002F09CFB0B1E8B4603DA0C339B467B1EC3
:10081C0000938C235B01E35C052B00D948E6944ADA
:10082C009B000C2130009F58029302F087FB0C2197
:10083C000190300002F082FB009AB84653009B18DE
:10084C009B001D000393002F00DC0AE1029A00209C
:10085C00884BD3585A461856121AD51752196A4053
:10086C0005000B2A01DD0C2200254646012E00D185
:10087C00E7E001265F469E57B4460096BE1BF7176D
:10088C00F6197E40964201DB1600AC464246022A1F
:10089C0000D1A1E002255A465D57521BD717D21939
:1008AC007A40964201DC320065464646032E35D02E
:1008BC0003269E57B4465E466746F61BF717F61995
:1008CC007E40B24200DCA1E04246042A00D183E023
:1008DC0004255A465D57521BD717D2197A409642B7
:1008EC0000DC96E04646052E18D005269E57B446E9
:1008FC005E466746F61BF717F6197E40B24200DCDF
:10090C0094E04246062A67D006255A465D57521B8C
:10091C00D717D2197A40B24200DB90E0039AAD1897
:10092C0000295DDB0E1AF217B6185640B3460B2E93
:10093C0075DC009A8F1AFE17BF197740BC46BB4571
:10094C0001DCDC460200404602283BD0022018564F
:10095C000700081AC61780197040604501DB604615
:10096C0017004646BC463A00032E2BD003229A565B
:10097C008E1AF717F6197E40864244DA4046042850
:10098C0020D0042018568446081AC717C01978407E
:10099C00B04241DA46466246052E13D005229A56DD
:1009AC008E1A1700F217B618564086423BDA4246AA
:1009BC00062A42D006229A56891ACB17C9185940D2
:1009CC008E423ADD019B5E00F618B600B6186FE554
:1009DC0003211940083169E6039D65440029A1DA19
:1009EC00019A0C31013A0E1A0192F217B6185640C0
:1009FC00B3460B2E1DDC46460200012EE2D001222E
:100A0C009A56009295E706006246B7E71600AC4688
:100A1C005AE73200654665E730009446BAE70C2287
:100A2C000020934685E706006746C0E71600AC46F3
:100A3C0067E70C2200209346DDE73A00C2E76546E3
:100A4C006CE7039AAD180029CADB091ACB17C91831
:100A5C0059400B260023CA0F8E425A415242024083
:100A6C00B0E7019BC90F5B1A00220193AAE7C046AD
:100A7C00F04500200846002010B5024B186803F022
:100A8C00D3F910BD984B002070B5D0250122002160
:100A9C00072000F0E1FE01220021062000F0DCFE20
:100AAC000122002105202D0600F0D6FE0120002198
:100ABC0001F02AFC6A686C686B6864069B06E40F9C
:100ACC00DB0F1B01A4001C431306DB0F00220121CA
:100ADC0007201C4300F0C0FE00220121062000F07C
:100AEC00BBFE00220121052000F0B6FE01200021F2
:100AFC0001F00AFC69686A6809066B68C90F52063E
:100B0C004900D20F9B060C43D200DB0F5B01002186
:100B1C000720144301221C4300F09EFE01220021F9
:100B2C00062000F099FE64B201220021052000F09D
:100B3C0093FE2A2C05D0302C03D0FF200C2C00D097
:100B4C0070BDE0B2FCE7C046F0B54E46DE465746F7
:100B5C004546E0B5431824331B7885B0994601907F
:100B6C000291002B00D12DE280468B0003935B1881
:100B7C001B01984444462C20205602F003FBE54907
:100B8C0002F0C9FA071CA06A02F0FCFA00218246A6
:100B9C00381C02F0A9FA0021041C504602F0A4FAF9
:100BAC00391C051C381C02F0B6FA002102F09CFA24
:100BBC00391C061C504602F0AEFA002102F094FAE1
:100BCC004A46071C012A00D19EE1424634201056A9
:100BDC0002F0D8FACF4902F09EFA42468246106BD8
:100BEC0002F0D0FA51468346201C02F07DFA594699
:100BFC00041C281C02F078FA5146051C504602F0E1
:100C0C008AFA011C301C02F06FFA5146061C584639
:100C1C0002F081FA011C381C02F066FA4A46071CE5
:100C2C00022A00D170E142463C20105602F0AAFA8A
:100C3C00B84902F070FA42468246906B02F0A2FA72
:100C4C0051468346201C02F04FFA5946041C281CBE
:100C5C0002F04AFA5146051C504602F05CFA011C9F
:100C6C00301C02F041FA5146061C584602F053FA69
:100C7C00011C381C02F038FA4A46071C032A00D122
:100C8C0042E142464420105602F07CFAA14902F09F
:100C9C0042FA42468246106C02F074FA5146834680
:100CAC00201C02F021FA5946041C281C02F01CFAE4
:100CBC005146051C504602F02EFA011C301C02F065
:100CCC0013FA5946061C504602F025FA011C381C32
:100CDC0002F00AFA4A46071C042A00D114E14246E3
:100CEC004C20105602F04EFA8A4902F014FA424691
:100CFC008246906C02F046FA51468346201C02F064
:100D0C00F3F95946041C281C02F0EEF95146051C57
:100D1C00504602F000FA011C301C02F0E5F959466D
:100D2C00061C504602F0F7F9011C381C02F0DCF9E5
:100D3C004A46071C052A00D1E6E054234246D05609
:100D4C0002F020FA734902F0E6F942468246106D31
:100D5C0002F018FA51468346201C02F0C5F9594698
:100D6C00041C281C02F0C0F95146051C504602F028
:100D7C00D2F9011C301C02F0B7F95946061C50463A
:100D8C0002F0C9F9011C381C02F0AEF94A46071CE6
:100D9C00062A00D1B8E042465C20105602F0F2F967
:100DAC005C4902F0B8F942468246906D02F0EAF9CD
:100DBC0051468346201C02F097F95946041C281C06
:100DCC0002F092F95146051C504602F0A4F9011CA0
:100DDC00301C02F089F95946061C504602F09BF96A
:100DEC00011C381C02F080F94A46071C072A00D166
:100DFC008AE042466420105602F0C4F9454902F0DC
:100E0C008AF942468246106E02F0BCF9514683467E
:100E1C00201C02F069F95946041C281C02F064F9E4
:100E2C005146051C504602F076F9011C301C02F0AC
:100E3C005BF95946061C504602F06DF9011C381C32
:100E4C0002F052F94A46071C082A5DD042466C2033
:100E5C00105602F097F92F4902F05DF9424682468E
:100E6C00906E02F08FF951468046201C02F03CF93E
:100E7C004146041C281C02F037F95146051C50460B
:100E8C0002F049F9011C301C02F02EF94146061CF7
:100E9C00504602F040F9011C381C02F025F94A4674
:100EAC00071C092A30D0019A02989046039B1B1804
:100EBC001B01984443467420185602F063F91549F7
:100ECC0002F029F943468246186F02F05BF951464D
:100EDC008046201C02F008F94146041C281C02F034
:100EEC0003F95146051C504602F015F9011C301C43
:100EFC0002F0FAF84146061C504602F00CF9011CAF
:100F0C00381C02F0F1F8071C211C201C02F003F91C
:100F1C00804601E0CDCCCC3D484602F033F9311C83
:100F2C00814602F0F8F8414602F0DBF80021061C7D
:100F3C0002F020F9002841D1391C484602F0EBF8A8
:100F4C00291C071C201C02F0E6F8011C381C02F0BE
:100F5C00C8F8311C02F0CBF81E49071C02F0DBF874
:100F6C00FC21890502F0C0F802F02EF98046029BA4
:100F7C00211C1E01019B381C9E193300C8331F60B5
:100F8C0002F0C9F8011C281C02F0ABF8494602F02B
:100F9C00AEF83300CC3342461860FC21D0238905CF
:100FAC00F25002F0A1F802F00FF9D423F05005B082
:100FBC00F0BCBB46B246A946A046F0BD00230027B4
:100FCC009846D4E7002398461F1C1E1C1D1C1C1C95
:100FDC00A2E7C046ABAAAA3FF0B5454657464E46D7
:100FEC00DE460300E0B52433A1B0020005930323D1
:100FFC002832140000259846EC27CA4E069007921A
:10100C004246059B29005A5500232373C64B277172
:10101C00A36014232375C54B266023610698FFF744
:10102C0093FD6B1C50340125022BE9D1133304AA18
:10103C0099180020FFF794F9152304AA99180402B3
:10104C000120FFF78DF9BA4B04439C4200D060E1BC
:10105C00162304AA9B189A4617239B189846B54B3F
:10106C0000249B46FF2300279946B34E0AAD1BE094
:10107C0001F06CFA80197941002902DA0120AF499C
:10108C00404200230290039100935246502158464F
:10109C00013302F085FD002820DD53461B78013416
:1010AC002B700135582C1FD053464A461A704346B4
:1010BC001C7001F04BFA80197941002902DA0120E9
:1010CC009E494042002302900391009342465021D6
:1010DC005846013302F044FD0028C9DC00230134DA
:1010EC002B700135582CDFD10AA8954B95495630F9
:1010FC000AAA20E05B001CB2002C27DB5C0023B2A8
:10110C00002B28DB640023B2002B29DB640023B204
:10111C00002B2ADB640023B2002B2BDB640023B2F0
:10112C00002B2CDB640023B2002B2DDB630001327F
:10113C009BB290422ED01478240263401CB2002C37
:10114C00D8DA64004C4024B2231ED7DA64004C4039
:10115C0023B21C1ED6DA5B004B401BB21C1ED5DA28
:10116C005B004B401BB21C1ED4DA5B004B401BB225
:10117C001C1ED3DA5B004B401BB21C1ED2DA5B0088
:10118C004B401BB21C1ED1DA5B004B4001329BB2B0
:10119C009042D0D1562204A918318A5A52BA92B22E
:1011AC009A4200D0B5E000262427079DB0460BAC30
:1011BC0013AE41462378059A5354002B00D199E085
:1011CC00A278E178120609040A4361790A4321796D
:1011DC0009020A4361782A602971012B00D189E048
:1011EC00E279217A120609040A43A17A0A43617A48
:1011FC0009020A43A179AA602973022B7AD0227BB7
:10120C00617B120609040A43E17B0A43A17B0902B4
:10121C000A43E17A2A612975032B6BD0627CA17C8D
:10122C00120609040A43217D0A43E17C09020A43A0
:10123C00217CAA612977042B5CD0A27DE17D12066A
:10124C0009040A43617E0A43217E09020A43617D37
:10125C00E9552A62052B4DD0E27E217F1206090446
:10126C000A43A17FA07E0A43617F09020A432C2115
:10127C006854AA62062B3DD03278717812060904A4
:10128C000A43F178E07F0A43B17809020A4334211A
:10129C0068542A63072B2DD07279B1791206090490
:1012AC000A43317A30790A43F17909020A433C2125
:1012BC006854AA63082B1DD0B27AF17A120609047D
:1012CC000A43717B707A0A43317B09020A43442139
:1012DC0068542A64092B0DD0F37B327C1B06120454
:1012EC001343B27CB17B1343727C120213434C2226
:1012FC00A954AB6441460698FFF726FC43460122ED
:10130C002934904650352936012B00D051E7002066
:10131C0000E0012021B0F0BCBB46B246A946A04675
:10132C00F0BDC046344E050050FC030040A902003D
:10133C00D1070000C047002010270000FFFFFF7FEF
:10134C00FFFF000021100000F8B5CE4647460025EF
:10135C0080B50700EE4B1022036000210561C560CB
:10136C00856045600562C56185614561F83001F0B5
:10137C00C1FF842338005B00FD520D30023308227C
:10138C000021FD52FF3001F0B5FF80238A221B01A2
:10139C005200BB520232BB5238008C2300245B003B
:1013AC001D30FC540021FE3AFF3001F0A3FF380041
:1013BC00353006220021FF3001F09CFFB5235B0085
:1013CC00FC543E230822FF33FC54D24B01261A60F6
:1013DC00E022D14BD2011B681340D04A13609D23ED
:1013EC005B00FC54063BFC543623FF33FC540133A6
:1013FC00FC543823FF33FC540133FC543A23FF33A1
:10140C00FC54C74BC74C98462378042199461800C6
:10141C0000F00AFA4B460421581C00F005FA4B4622
:10142C004A465B081F2A00D9AAE107221A409300FA
:10143C009B18BD49BD4A9B009A18591815600D6040
:10144C00BB4959180D60BB495B1841461960102304
:10145C00536016602378013359081F2B00DD8BE194
:10146C0007220A4093009B18AF49B04A9B009A1878
:10147C00591815600D60AE4959180D60AD495B18CF
:10148C004146196010235360166023785A081F2BAD
:10149C0000D938E1072111408A005218A449920062
:1014AC005118096840468C46310019404942414068
:1014BC0060460140A0480133121811605A081F2BD6
:1014CC0000DD1CE10721114040468A005218984962
:1014DC0092005118334009685B4243400B409649D7
:1014EC00023452181360954B9C428DD102F0A2F835
:1014FC001F211B2000F098F9002200211B2000F076
:10150C00ABF900211B2000F0B9F91F211A2000F0C3
:10151C008BF9002200211A2000F09EF900211A20DC
:10152C0000F0ACF91F211C2000F07EF900220021F4
:10153C001C2000F091F900211C2000F09FF91F21C4
:10154C001D2000F071F9002200211D2000F084F90B
:10155C0000211D2000F092F9182000F0A1F91920AB
:10156C0000F09EF9D024802324065B046362802360
:10157C009B046362082000F093F980235B00636294
:10158C000920636100F08CF980239B0063620220C8
:10159C00636100F085F904230022A362012102207B
:1015AC0000F05AF9032000F07BF90823644DA36284
:1015BC0000220121032000F04FF92800614902F0BC
:1015CC0055F80222904641466B68122013405E4A41
:1015DC0011600F22296810255140C0320A405B4926
:1015EC000A605B4A0121136000F01EF901211320EF
:1015FC0000F01AF90121152000F016F9042117202A
:10160C0000F012F90421162000F00EF90022474BCD
:10161C005049DA635A649A64D9641D64DE63DA63F0
:10162C005A649A64D9641D64DE63FA234A499B04A4
:10163C000A68072053401B0C484A1B041360FA230A
:10164C0009689B004B401B041B0C136000F028F92D
:10165C00062000F025F9052000F022F98023A36272
:10166C00403BA362203BA362142000F019F9002236
:10167C000021142000F0F0F8042000F011F965624C
:10168C003749A561374802F043FA0321102000F0D6
:10169C00CBF80321112000F0C7F8002000F000F96E
:1016AC006662012000F0FCF8434638006362FFF7E5
:1016BC00EBF9F023F8543800FFF78EFC9F234640DB
:1016CC0001205B003040F854563B9846B8444046E5
:1016DC0001F092FF14264346234C244D03CB244A9D
:1016EC00244B01F0E1FC013E00196941002EF6D1BA
:1016FC00434603C33800C0BCB946B046F8BD03210D
:10170C0011400831E0E6032111400831C4E6C0461F
:10171C002846002000F0044000C0044000D00440E3
:10172C00FFFF0000CC4600200800054000000540EB
:10173C000C000540100005400C100540D24600205E
:10174C0000C00340286BEE0004F0034000D00340BF
:10175C0004E00340CF070000480005404810054056
:10176C00A0860100C04700204F8167F77E7B0514DF
:10177C002D7F954C2DF4515803220A40083271E606
:10178C0003221A40083252E610B51C4CA54404A89A
:10179C00FFF7DAFD1A4B694604930023194A1031FE
:1017AC008B50194A04A98B508021184A04AC490467
:1017BC00A1508021164A4900A350164A04ACA150EE
:1017CC000432A354144803AB02AA01A901F09EF8F9
:1017DC00002803D11148104900F080F8039A0299AF
:1017EC00019800F0B9FF04AA0D4B10001A6002F02A
:1017FC002FFA00200B4B9D4410BDC04668EEFFFF36
:10180C00344600206C1100007011000074110000AF
:10181C00781100007C11000080320200104500207D
:10182C00984B00209811000010B54024074A830003
:10183C009A181268C0005440C0222240044C1B1954
:10184C001A60044BC018416010BDC04604C0014072
:10185C0004D0014000400140064B8000C3181B68B7
:10186C00C90092000A435A400C231340024A8018C4
:10187C000360704704C0014004D00140800000297F
:10188C0004D0054BC018402303607047034BC018AD
:10189C0040230360F9E7C04604E0014004F0014036
:1018AC000123D0228340120693629361084A83007D
:1018BC009A1811684022514080320A400549C000F4
:1018CC005B181A60044BC018052343607047C04670
:1018DC0004C0014004D00140004001400FB400B5E9
:1018EC00084883B001F062FE049B002B07D005A9C9
:1018FC001800019101F012FD034801F057FE012080
:10190C0001F024FD444500205445002070B58C4660
:10191C001600EFF3108472B60F490B68002BFCD045
:10192C00BFF35F8F6346DB08C5180722C05C6346B4
:10193C001A40012393401A000240034207D1184376
:10194C002870BFF35F8F0A6084F3108870BD614606
:10195C003000FFF7C3FFC0462C0100D0F8B5CE46CF
:10196C0047468C4680B51C00EFF3108872B61C49B4
:10197C000B68002BFCD0BFF35F8FA24221D807234A
:10198C00994602E00132944218D34946012611408F
:10199C008E40D308C718C35C1E42F3D110003343EA
:1019AC003B70BFF35F8F00220D4B1A6088F31088D9
:1019BC0000280EDBC0BCB946B046F8BD0120404241
:1019CC00EFE7BFF35F8F00230B6088F310880120D3
:1019DC0040426346002BEDD00898FFF77FFFC046CE
:1019EC002C0100D0044A1078431CDBB2172B00D911
:1019FC00102313707047C0463C4700200021044B55
:101A0C00044ABFF35F8F02C39342FAD17047C046BA
:101A1C00000100D0800100D0084B094A1360094A2C
:101A2C001360094A1360094A1360094A1360094A92
:101A3C001360094A1360094A1360704780808080E4
:101A4C0000E400E004E400E008E400E00CE400E062
:101A5C0010E400E014E400E018E400E01CE400E012
:101A6C001F2318401E3B8340002905D0C021044A87
:101A7C004900535013607047802201498B50FAE79C
:101A8C0000E100E070B50D00EFF3108672B60F4A5E
:101A9C001368002BFCD0BFF35F8F0D4B10309B688D
:101AAC0084001B590B4A934203D09D4201D001F094
:101ABC0019F9074B9B681D51BFF35F8FBFF35F8F05
:101ACC000022024B1A6086F3108870BD240100D0EE
:101ADC0000ED00E0C1010010F0B54546DE4657466A
:101AEC004E46E0B50D0083B0EFF3108872B6604A35
:101AFC001368002BFCD0BFF35F8F5E4B5E499A6876
:101B0C00030010339F00D45999468C423ED0AC420E
:101B1C004FD05A4EA21B2F2A38D8594B1A689C46C4
:101B2C0013000122824013401F22024001209A46DA
:101B3C0090406346802283469850BFF35F8FEFF34B
:101B4C0005830193002B36D0994501D001F0CAF8DA
:101B5C00012322009A439068854208D176E04B001D
:101B6C005B189B00F3189868854236D01A00062142
:101B7C0051560029F3DA854254D05346002B27D016
:101B8C00C02259463E4B520099501960394B9B6804
:101B9C00DC51BFF35F8FBFF35F8F0022344B1A60B1
:101BAC0088F3108803B0F0BCBB46B246A946A046E9
:101BBC00F0BD0C00EAE7220001339A43906885429D
:101BCC00D5D106201056130000280ADA0C0031E09B
:101BDC00802359462A4AD150D8E7062018560028A7
:101BEC0021DB42001118890075188946A968996093
:101BFC00E979D971062169569971002924DBAD88E0
:101C0C00F11A6D052D154D44491909051D4D490D48
:101C1C002943998013181C4A9B001178F318997169
:101C2C001070AAE713000199002914D1FF319171AA
:101C3C001649918014490A789A71154A9B1B5B418D
:101C4C005A43120D0A7098E71049E2E70620105625
:101C5C0013000028C5DA0F4A0F49D21A083A50026D
:101C6C00400D014399800D4952080A43DA8084E7FC
:101C7C00240100D000ED00E0C1010010404700201D
:101C8C0000E100E000E0FFFF3B4D002001BDFFFF45
:101C9C00AAAA00007A47002000F0FFFF00F8FFFF1F
:101CAC00084A83089B009B181A6810B5140003227D
:101CBC001040C000FC3282409443220081400A4311
:101CCC001A6010BD00E400E00123034370B59C468C
:101CDC00EFF30581EFF3108572B6214A1368002BE0
:101CEC00FCD0BFF35F8F1F4B04001F4AE41A644102
:101CFC006243120D1D4C8900A66852B27658664597
:101D0C001CD00621595691421CD012215956914291
:101D1C0022D01E215956914220D02A2159560324F3
:101D2C00914210D0124B19781A708171BFF35F8FEA
:101D3C0000220B4B1A6085F3108870BDA3680D4C04
:101D4C005C50EFE700246100091989005B18FF2142
:101D5C00997109499980E5E70124F4E70224F2E737
:101D6C00240100D040470020AAAA000000ED00E0AA
:101D7C003B4D0020C101001001BDFFFF024BC918F3
:101D8C00890001607047C0464000003470B5114CAA
:101D9C00114DAC420FD2FF262368002B0CD0FFF75D
:101DAC0021FE01002000FFF7E9FFA680BFF35F8F43
:101DBC000834AC42F0D370BDFFF714FE01002000D4
:101DCC00FFF7DCFF2671BFF35F8F0834AC42E3D31F
:101DDC00F1E7C046C8470020D04700200A4B1968DD
:101DEC00EFF3108072B60A68002AFCD0BFF35F8F45
:101DFC001B68BFF35F8F00221A6080F3108840BF0E
:101E0C00002000217047C046344D0020F0B5DE465E
:101E1C0057464E464546E0B585B0EFF305830322A1
:101E2C001A40B34B91005F58012393409B4602929A
:101E3C005A468846AF4B1A60AF4B03935B46AF488C
:101E4C0043630823FE5E002E37DABB881BB2002BDF
:101E5C0000DBA4E0BB79002B00D0E5E00823F95EA1
:101E6C00002920DB4B007A695B18DB00D3189D68D6
:101E7C00DC686B1C00D104E1A04801004144826A7B
:101E8C000B69AE1A9B1A9E4215D30123026A029863
:101E9C0083401A420FD0994800F050FB8C4202DC70
:101EAC00CCD18542CAD940BF05B0F0BCBB46B246C6
:101EBC00A946A046F0BD0D61EDE77A697300914625
:101ECC009B19DB0099444B469C68DD6800F036FB9F
:101EDC008D42BADC00D1F6E0002D00DADBE04A4698
:101EEC004B4652691B699246039A934200D1CCE04F
:101EFC004A460821785E52880004514610439847A0
:101F0C00009001910099019A0B00134300D1C2E09B
:101F1C0013000A00002B00DBD9E020002900801AF6
:101F2C0099414B469860D96000229B5E002B00DAE9
:101F3C008BE75D007C69EA18D200A21800949468C3
:101F4C00D268A2468A4200DD7FE702D1844200D9E2
:101F5C007BE70824A4463B81BC44009C00972F00DF
:101F6C006546B4463E0006E05E00F218D200A218A8
:101F7C009768D268BA468A4207DC00D1B4E0F318FD
:101F8C00DB00E518E35E002BEEDA66464A46009F5E
:101F9C0013802E80BB881BB2002B00DA5AE73A69FB
:101FAC00EFF3108172B61368002BFCD0BFF35F8F78
:101FBC000123BE885B42BB8036B23B69BFF35F8FA7
:101FCC0000221A6081F31088002E00DA42E73B00F1
:101FDC0008333A0099467D6973009B190824115FF8
:101FEC00DB004846EB18002913DB9C680093A446E1
:101FFC00DC6806E0A34240D00023F95E38000029DB
:10200C0006DB4F007F18FF00EF19FB68A342F1DDE0
:10201C00009B068000201E5E1980002EDCDA170063
:10202C00BB79002B00D119E70023BB710823F95EA3
:10203C004B1C00D137E73D000835AC467C6903E00A
:10204C0084464B1C00D109E74B005B18DB00E01801
:10205C000A00E15E43881BB2002BF1DA01256D42C8
:10206C00EE178560C66008257B5F9342E9D0634616
:10207C0019803B8903803A81E3E7BB686345BBD990
:10208C00C6E7631C00D0F7E605E7534650461B69CC
:10209C009847002823D14B461B883A693B81EFF3C4
:1020AC00108372B611680029FCD0BFF35F8F4946CC
:1020BC007A880A803A697E80BFF35F8F00211160B5
:1020CC0083F31088C1E6844200D805E7BDE60B48CF
:1020DC0000F034FA009B019CC018614121E7534683
:1020EC000CCB009201930DE7824500D847E74CE7F3
:1020FC00184D00203C7005402D1C00200040054070
:10210C0070B52D4C2569002D04D00A212B48FFF702
:10211C0035FE70BD2A4E0321294800F005FAE66011
:10212C00FFF760FC274B0322C018D02322701B063C
:10213C001B6801216370244B8000A3600F23206176
:10214C000220638063694942A1801980023119869B
:10215C0047311D83585218315A5275325C39995295
:10216C001832013199521832013199521832013119
:10217C009952083518329D52023118329952183240
:10218C000131995218320131995218320131995258
:10219C001832013199521832013199520B4B0C49BA
:1021AC00DC6001303562FFF76DFC01210320FFF785
:1021BC0057FC084B1D60A8E788470020344D0020D1
:1021CC000040054040000034FFFF1000184D002077
:1021DC002D1C00203860054070B582B00092019330
:1021EC0001000269EFF3108472B61368002BFCD067
:1021FC00BFF35F8F0223C85E0D6900283FDB4A697D
:10220C00430016001B18DB00D218F35A4B80BFF3A7
:10221C005F8F00232B6084F31088069B1361079B50
:10222C005361009B019C9360D460538801335B0421
:10223C005B0C1D1C002B20D0ACB203045580234337
:10224C000D69EFF3108C72B62C68002CFCD0BFF328
:10225C005F8F8C88148088800A69BFF35F8F0020A1
:10226C0010608CF310880A7801309040CA680849D5
:10227C0052181060180002B070BD0125DCE7BFF3E6
:10228C005F8F00232B6084F31088013BF2E7C0467C
:10229C003C20000010B543890A1493421ADD530008
:1022AC009B184269DB00D3180469EFF3108C72B6EB
:1022BC002268002AFCD0BFF35F8F5A88090494B2BD
:1022CC00090C8A4208D00369BFF35F8F00221A60A1
:1022DC008CF31088002010BD094A22435A80012338
:1022EC0002698371BFF35F8F002111608CF310883A
:1022FC00027804499340C268012052181360EAE73F
:10230C000080FFFF3C200000F0B5C64600B582B04F
:10231C0004000D0000F01AF924184D41002D02DACA
:10232C0001242F4D644206267642F71736196F4169
:10233C00AF4214D811D000F009F932003B00121A48
:10234C008B41002B15DC002B46D02000290000F01F
:10235C0007F902B080BCB846F0BDA642EBD9002606
:10236C00002700F0F3F832003B00121A8B41002BCF
:10237C00E9DD00F0EBF832003B00121A8B41002B28
:10238C000ADB00230193174B3200009316483B00E5
:10239C00FFF722FF0130D8D000233900B0469C460D
:1023AC00124A1348536A994204D8966A4645CCD2CD
:1023BC009942CAD10668EFF3108772B63368002BC6
:1023CC00FCD0BFF35F8F0368BFF35F8F66461E6060
:1023DC0087F3108820BFE5E7002AB6D0C9E7C046CE
:1023EC00FFFFFF7FFD1B00208847002000400540B9
:1023FC00344D0020F0B5CE46474680B504000D00A4
:10240C0085B0EFF305868946002E10D036490020A2
:10241C004B6AAB4206D38A6A5B1B591E8B41A242A4
:10242C004041184305B0C0BCB946B046F0BD2F4F73
:10243C00FB683A7898461800039200F07FF8039AEC
:10244C00131D42469B009B5822001B1A9C462B00D6
:10245C00121A8B419E4210DC0DD020BF224A002064
:10246C00536A4B45DED3926A5B1B591E8B41A242C9
:10247C0040411843D6E79445EFD900F067F82200A5
:10248C002B00121A8B41002B1BDB00230193184BE2
:10249C002200009338002B00FFF79EFE002810DD71
:1024AC00114B5A6A4A451CD39B6AA34217D30100AD
:1024BC003800FFF7EFFE0C4A0020536A4B45B1D3AE
:1024CC00D1E7094A0020536A4B45ABD30020926AEE
:1024DC005B1BA24240415A1E93411843A2E74A4556
:1024EC00E5D120BFE3E7C046004005408847002007
:1024FC00FD1B0020036808499C464A6A436800207B
:10250C00934207D89B1A5A1E93416246896A91429C
:10251C00404118437047C046004005400CC001487C
:10252C007047C0461523002010B5024A0248FFF739
:10253C00EDF910BD58450020C84C00200300416A3D
:10254C000A00986A596A8A42FAD17047034B596A51
:10255C000A00986A596A9142FAD1704700400540C6
:10256C00064A536A9942FCD807D1044B02E05A6AD6
:10257C00914202D19A6A9042F9D8704700400540C6
:10258C00F8B5DE464E4645465746E0B505008B4647
:10259C0018000A99914600F0F9FC0A9B6C001E0287
:1025AC006419304BA400E418636880469E4200D93D
:1025BC0066602F1FFBB29A46012B2FD9C0238022B5
:1025CC00294FAD009B0179591201E3181A600029BB
:1025DC001BD14B4622685B015340E0221340802202
:1025EC005201A21813605346012B2FD9802380224D
:1025FC009B01E31812011A60434666607B51F0BCE4
:10260C00BB46B246A946A046F8BD786900F0BEFCB0
:10261C00013043001B18033BFDD2DAE75B46012B6C
:10262C00CCD1C02303229B01E3181A60023AA368A1
:10263C001A42FCD04A46236852015A40E023134008
:10264C0080225201A218084F1360AD005846032394
:10265C00216841400B40136001228240A3681A425A
:10266C00FCD0C3E700800040CC4C0020F0B5D6462F
:10267C004F464646440098462418324BA400E418B2
:10268C0063688A469146C0B5FF2B02D880235B0055
:10269C006360061FF6B2012E2FD9C02380222A4F69
:1026AC0085009B0179591201E3181A6000291BD18E
:1026BC004B4622685B015340E022134080225201BA
:1026CC00A2181360012E30D9802380229B01E318BD
:1026DC0012011A6080235B00636043467B51E0BCAF
:1026EC00BA46B146A846F0BD786900F04FFC0130FF
:1026FC0043001B18033BFDD2DAE75346012BCCD128
:10270C00C02303229B01E3181A60023AA3681A4201
:10271C00FCD04A46236852015A40E02313408022E1
:10272C005201A218084F13608500504603232168FC
:10273C0041400B40136001228240A3681A42FCD036
:10274C00C2E7C04600800040CC4C0020014B80000A
:10275C00C0587047CC4C0020F0B5C64600B55B4B5A
:10276C0015005A6884460F0082B0FF2A02D88022D6
:10277C0052005A600322564B54481A600123826857
:10278C001342FCD0202201685140C0320A4051490A
:10279C000A6002684D485A40032313400B60022321
:1027AC0082681342FCD0802280264B4B12011A60A7
:1027BC004A4C4B4B760046606246636101213B00FC
:1027CC0048480095E04600F0E5F929004046794379
:1027DC0000F0DCFB444B05005A68FF2A00D85E6011
:1027EC008022424B12011A602169002907D06069CE
:1027FC0000F0CCFB013043001B18033BFDD2E0235F
:10280C00394A3B4811680B40036002231168594058
:10281C0001330B400421036093681942FCD08021E2
:10282C00344B090119608021334B490051602361FD
:10283C00264B5A68FF2A00D8596003220121244BE9
:10284C001A60224A93681942FCD0E02310680340B6
:10285C0020480360126803234A40022113401B4A9C
:10286C00036093681942FCD080211B4B090119604D
:10287C008021224B4900516065615A68FF2A00D8BB
:10288C00596080221E4B12011A60A169002907D0E1
:10289C00606900F07BFB013043001B18033BFDD249
:1028AC00402316490A685A40A0331340154A136056
:1028BC008022154B12011A6080235B004B60084B81
:1028CC00A36102B080BCB846F0BDC0463C8000405D
:1028DC003CB000403C9000403CA00040CC4C002060
:1028EC00006CDC02008002403080004030B00040C0
:1028FC003090004030A00040001BB70048800040E2
:10290C0048B000404890004048A00040F0B5454613
:10291C008046A02057464E46DE461C00984B400091
:10292C0081469A46E0B585B0019102920394954B8D
:10293C009A4509D901235B429944934B9A444B46DF
:10294C000F2BF4D100208EE00725904C54442F001F
:10295C006F432000390000F019FBAB466E1E40455A
:10296C0053D07543200029002F0000F00FFB804549
:10297C005CD04346751EA8461D005B46FF1A390005
:10298C00200000F003FB85425DD0B31E9846022E5A
:10299C0000D1BAE05B46FF1A3900200000F0F6FACD
:1029AC00854267D0F31E9846032E69D05B46FF1A0A
:1029BC003900200000F0EAFA854200D176E0331F9E
:1029CC009846042E00D178E05B46FF1A39002000AF
:1029DC0000F0DCFA854200D17EE0052E00D180E0CB
:1029EC005B462000F91AA84600F0D0FA062580456F
:1029FC00ADD10029ABD1CA460199D946029A039CA4
:102A0C00053D28E02B00454698463900200000F093
:102A1C00BDFA002900D1A4E06E1EAB467543200020
:102A2C0029002F0000F0B2FA8045A2D13900200015
:102A3C0000F0ACFA00299CD1CA463500D946019960
:102A4C00029A039C07E000299FD1CA464546D94605
:102A5C000199029A039C50464D4B43430B604B46E5
:102A6C0001201360256005B0F0BCBB46B246A946F8
:102A7C00A046F0BD0029E8D0F31E9846032E95D150
:102A8C000323092120000927984600F07FFAA84269
:102A9C00B8D00323062120009B460226033F00F0FA
:102AAC0075FA854248D00123984666E70029CCD0B8
:102ABC00331F9846042E00D086E723099D4256D03A
:102ACC000C2720003900B346013E00F05FFA854226
:102ADC0032D00223984650E70029B6D0052E00D0FC
:102AEC007EE719212000192700F050FA85422DD0DD
:102AFC0014212000053F00F049FA854217D0052328
:102B0C009B46023B0426984637E7A846A1088D420F
:102B1C0014D061088D421CD0444500D00AE7012333
:102B2C00CA46012599460199029A039C93E705230D
:102B3C00A8469B46042679E7A84677E70223CA46AF
:102B4C00022599460199029A039C84E7A84605251B
:102B5C005BE70223CA46012599460199029A039C18
:102B6C0079E7CA460199A946029A039C73E70423A4
:102B7C00CA461D0099460199029A039C6BE7C04610
:102B8C0050262F0050F80C0020D1FFFFB0710B0025
:102B9C00001BB700F0B5C646040000B5234816006C
:102BAC0098460D0000F0F2F90100300000F0EEF94B
:102BBC004346069A1B04120313439C4623680600E3
:102BCC00002B22DB1A4B1B48E218531E9A41802320
:102BDC005242120B9B011203D218174B1A60174B5F
:102BEC001A60130001688B43FBD12122144B256022
:102BFC00E318A6601A602268002AFCDA6246E260DA
:102C0C0008221A6080BCB846F0BD3F2322681340EE
:102C1C00AB42D7D1A3681B051B0D8342D2D1EE2248
:102C2C00E368D20213406345CCD1EBE7001BB7003D
:102C3C000040FDBF08C0004000E0004000F0004034
:102C4C00043000008023024A9B000B43D362704780
:102C5C0000800540002310B50100988A1B8B984713
:102C6C0010BDC046162310B5010018885B88984724
:102C7C0010BDC046F8B54746CE4680B50F1E18D0DD
:102C8C0014239946043304000025012698464B462C
:102C9C001888434621681B88984701C4431E9841F5
:102CAC0001350640AF42F2D13000C0BCB946B04647
:102CBC00F8BD0126F8E7C046AA23064A1B0113609B
:102CCC002133FF33D3600449044B19605368002B44
:102CDC00FCDA70470040024000B0FA00006002408D
:102CEC007047C04610B50148FEF7F8FD7C45002042
:102CFC0070B5074D074EB54209D20024013E761B34
:102D0C00B608013608CD01349847B442FAD170BDEB
:102D1C00D04700200C480020054B064A06491A6093
:102D2C00064A074B1A6010000B689843FBD170479A
:102D3C0000E00040BFCDFBFE08C00040FE7F3C0021
:102D4C0000F00040044BDB6C002B03D18022034BC2
:102D5C00D2021A607047C046000011504C2011502E
:102D6C00044A054B1A60054A1368DB018033FBD11A
:102D7C007047C046FFFFFF0100F0004008C0004054
:102D8C004022034B9A675A671A67DA667047C04647
:102D9C0000F0014010B5FEF731FE10BD70B52849AA
:102DAC00284D294E6D1AAC102200302C00D930223F
:102DBC003000920000F0A4FABC2D3DD823002A3B31
:102DCC00224A052B1DD9302075196D07A446001B0E
:102DDC00EB0F002D03DA611C8C46A1007250C01A57
:102DEC00E3189B004108F318C900C9181A605A600F
:102DFC0008339942FAD1012303421DD09843604411
:102E0C000400A300F250631C2F2C15D09B00F25031
:102E1C00A31C2E2C10D09B00F250E31C2D2C0BD09D
:102E2C009B00F250231D2C2C06D09B00F250631DEE
:102E3C002B2C01D09B00F250054B9E6070BDC04600
:102E4C0000010010C001001000000020C1010010A2
:102E5C0000ED00E0002310B5294C82B0A367FFF70A
:102E6C002BFF0122274B1A60636C012BFCD1032230
:102E7C00254B1A60224A936B012BFCD10133009332
:102E8C000121224A22480433FFF784FE0523012145
:102E9C000093204A2048FFF77DFE002202210420E7
:102EAC001E4BFFF7E3FB0022012105201C4BFFF713
:102EBC00DDFB0022002107201A4BFFF7D7FB002275
:102ECC0000210820174BFFF7D1FB8023DB00009378
:102EDC00002200210920134BFFF752FB0022104B5C
:102EEC0000210620FFF7C2FB0420FFF72FFC0E4940
:102EFC0000F04CF801000020FFF7A4FE02B010BD5A
:102F0C00008000403CB0004030B00040002F6859B9
:102F1C0000800240008C864700C00240001BB700B6
:102F2C0040597307006CDC0240420F000148042139
:102F3C00014B1847A0470020952A0020124A936F96
:102F4C009B0815D29066D166002905D0FFE7FFE7F4
:102F5C00FFE7516F106F704704B580210906C21747
:102F6C005140002800D0C84300F03AFE002104BDB7
:102F7C00F0B5146E556E576F166FFFF7E3FF1466BE
:102F8C00556657671667F0BD000000D0114A936F65
:102F9C009B0813D210665166002905D0FFE7FFE7A6
:102FAC00FFE7516F106F704704B5002801D0002067
:102FBC00C04300F015FE002104BDC046F0B5146EF0
:102FCC00556E576F166FFFF7E5FF1466556657671A
:102FDC001667F0BD000000D0132370B51D78012DCD
:102FEC0019D014DD1F48FFF73DFE06001E48FFF701
:102FFC0039FE1E4C80223100200000F081F9022D98
:10300C002DD01B48FFF726FE1A4B186070BD1A4BCB
:10301C00164CA364F5E7184B144C23606360A36053
:10302C00E36023616361A361E36123626362A36272
:10303C00E36223636363A363E36323646364A36452
:10304C00E36423656365A365E36523666366A36632
:10305C00E36623676367A367E367A364D1E7064B63
:10306C00A364CEE753440000534600009849002067
:10307C004C330000304D00209D2E002007B56046DB
:10308C0001880A0A0230DF2AFAD1C9B2820804D3B5
:10309C00028840880004104300E00068014A505048
:1030AC00039007BD9849002051434343C9188C46EF
:1030BC00110C83B24B4310B4040C614392B280B236
:1030CC00504362431C041B0C001910BC59411304DF
:1030DC00120CC018514161447047000048404140F7
:1030EC0048400E4B5B6818470C4B1B6818470C4A42
:1030FC00936F9B0802D2094BDB681847F0B5146E2E
:10310C00556E576F166FFFF7F6FF054A1466556636
:10311C0057671667F0BD014B9B681847984A00200B
:10312C00000000D007B548404140484001E0C0468F
:10313C0007B54200120E03D0FF2A03D1420218D861
:10314C00C00DC0054A00120E03D0FF2A03D14A025B
:10315C000FD8C90DC9050122414005D4414001D504
:10316C00814207BD884207BD0143491801D0C043C5
:10317C00001807BD00B5FFF7DBFF01D0002000BD34
:10318C00012000BDC10FC90700D54042002817D04F
:10319C00F44603B40B4B1B68984706BC81409E3821
:1031AC004042803107D20B0607D04900490AC005BE
:1031BC001043084360470130F8E7490A8902F5E7F4
:1031CC0070470000304D002041000A0E80231B0682
:1031DC007E2A0BDD9E3A0BDAC117400240081843D9
:1031EC005242D0404900013148437047002070479B
:1031FC00C00FC01801387047C0420DD300B5400055
:10320C004008002100F012F8002801D4404200BD13
:10321C008020000600BD0000034BDB69FC4618470C
:10322C001CDFED3000200000984A0020014B5B6A47
:10323C0018470000984A0020132310B51C78134837
:10324C00FFF710FD012C0BD004DD0100802210488B
:10325C0000F056F80F48FFF7FDFC0F4B186010BD3F
:10326C000B4C01005422200000F04AF80B4B636514
:10327C00A365E36523666366A366E36623676367FA
:10328C00A367E3672362E361E4E7C04653460000AB
:10329C00984A00204C330000304D0020C1300020F3
:1032AC0007B5604601880A0A0230DF2AFAD1C9B292
:1032BC00820804D3028840880004104300E00068B0
:1032CC00014A5050039007BD984A00200021C215B6
:1032DC008032803201D0024A104700207047000033
:1032EC00CD2A000001480421014B1847B0470020AB
:1032FC00952A0020014B1B6818470000B04700209E
:10330C00014B5B6818470000B047002010B500283F
:10331C0000D110BD00F000F9FBE7C04610B5094A1A
:10332C000300146884B0002C08D0012200910648D8
:10333C00524203A9A047012004B010BD00F036F999
:10334C000020F9E7FC4C00202D31002000BEFDE7E9
:10335C0010B5FFF7FBFFC04670B5FFF7C9FC074D72
:10336C00074EB54209D20024013E761BB608013641
:10337C0008CD01349847B442FAD170BD0C480020F6
:10338C0014480020030010B5080011001B68984772
:10339C0010BDC046F8B5437D07000D001600002B8C
:1033AC0038D0002A1ADD0B780A2B18D00020012EF9
:1033BC0009D0012421006B5C01340A2B1AD0B442D1
:1033CC00F8D1864203DD311A3B6828189847AD19AD
:1033DC00013D2B780D3B5A4253413B75F8BD037DA3
:1033EC00002BE3D102210E483B689847012EEED00A
:1033FC000120DEE76B1E5B5C0D2BE0D0884203DA0C
:10340C00091A3B6828189847054802213B689847D9
:10341C002000D4E70368110028009847DEE7C04677
:10342C0028470020F0B54646D6464F46C0B582B078
:10343C0090461C0006000D00FFF788F800232F4A69
:10344C0012184B41002B02DA01222D4B52422D490E
:10345C0008008A4601F000F881466B1C03D130004D
:10346C0000F0C0FB0500002C27D0274F274B1C6811
:10347C00002C18D04346002B21D1254B984602E056
:10348C002469002C0FD02368002BF9D043461B680D
:10349C00002B01D09C42F3D120002A003100B84708
:1034AC002469002CEFD14B46002B23D1280002B00D
:1034BC00E0BCBA46B146A846F0BD164FD6E7144B51
:1034CC00984602E02469002CEDD02368002BF9D03B
:1034DC0043461B68002B01D0A342F3D12A003100D4
:1034EC002000B8476B460A222000DA71D91D093A30
:1034FC00B847E7E7504600F0FBFFD7E740420F0024
:10350C00FFFFFF7FC8470020B5310020F44C00209E
:10351C00F84C0020A5310020F0B5CE46474680B5CA
:10352C0083B06B460600DD1D2870FFF70FF80023F3
:10353C00194A12184B41002B02DA0122174B524246
:10354C0017490800894600F087FF164B80461C6817
:10355C00002C14D0144F02E02469002C0FD02368E7
:10356C00002BF9D03B68002B01D09C42F4D12000F9
:10357C0001222900FFF70EFF2469002CEFD14346EE
:10358C00002B05D1300003B0C0BCB946B046F0BD2D
:10359C00484600F0ADFFF5E740420F00FFFFFF7F0C
:1035AC00C8470020F44C0020F84C002070B50400F3
:1035BC0000F018FB01230100050001222000FFF799
:1035CC0031FF084B1C68002C06D06368002B05D01B
:1035DC0098472469002CF8D1280070BD2469002C70
:1035EC00F3D1F9E7F44C002010B5024800F004F8D0
:1035FC0010BDC046284D002010B588B004000D2227
:10360C0000216846FFF776FE0D22002104A8FFF783
:10361C0071FE4B236A466846137004A90D2200F014
:10362C00D5FF1521082220006944FFF769FE08B078
:10363C0010BDC04601230121084A1360084A1360DB
:10364C00084A080013689843FBD1074A116080218F
:10365C00490013680B42FCD07047C04600E00040A4
:10366C0000F0004008C0004000C00440F0B54546E2
:10367C0080463B4A4E46DE4657464244531E9A41CC
:10368C008023E0B55B021204D218364B83B01A606B
:10369C00354B894635491A6015000B689D43FBD1A3
:1036AC000620FFF753F843465A6802231A4000924B
:1036BC002F4A8026424413604B468246D90D58024D
:1036CC0001920B0002000224760006E0924506D31C
:1036DC00023412184B41B44201D0002BF6D0802793
:1036EC002602361B7F0002E0361B012F36D031003C
:1036FC005046BB46013FFFF749FC8145F4D2594681
:10370C0061433D0243461C611B68FF226B408025D0
:10371C0012026D0113404544164A2B60009B424433
:10372C00136002204346019C5B6820604446266877
:10373C0007246640C83434402C60032403401360D3
:10374C000D4B43441C6010605046FFF71FFC03B048
:10375C00F0BCBB46B246A946A046F0BD2100D1E75D
:10376C000040FCBF00E0004000F0004008C00040FA
:10377C0004300000042000002420000000B5054B9C
:10378C0083B00100009300220B230348FEF7E6F8F8
:10379C0003B000BDD0450020384D0020104B8201F5
:1037AC00D3181968C3024B400E4910B50B400E4993
:1037BC00A02451180B6001238340180080210B4B6F
:1037CC00E40518600A4B490418600A4BE0500A4B98
:1037DC00D21813680B42FCD18023DB00E05010BDE3
:1037EC0010000050017800001010005004340050FC
:1037FC0014340050440400000C000050F0B557463F
:10380C004E464546DE46E0B587B01C00039310AB30
:10381C0001921A78002306000068119DC3660133DB
:10382C004160129F0492C366002C00DC92E0631E80
:10383C009B4601235A400292002D03D001213800EF
:10384C00A8473068002233799146103290469A028C
:10385C0059464B465B1A59424B414C4602990B4018
:10386C0001995B02095D00240B4313430361002D96
:10387C0006D12AE041463368E4B25A6B114211D1A9
:10388C0000213800A8470028F4D002235B42994657
:10389C004846049B337107B0F0BCBB46B246A94600
:1038AC00A046F0BD80229A58002A1FD1002C1FD1AF
:1038BC00D94546D001239944039B4B45E8D00121BF
:1038CC003800A84700223068C2E71022436B1A4226
:1038DC00FCD08023C258002A28D1D94535D00123E9
:1038EC009944039B4B45D3D00022B1E701245B6D77
:1038FC0080239B009A46059204E0514633685A6B2C
:10390C000A4205D100213800A8470028F5D0BCE7B1
:10391C00059A1B6E002CCDD0002A03D0092313402E
:10392C00082BB5D001235B429946B1E70124436DC6
:10393C0080218900436B0B42FCD0036E002CCED04F
:10394C00EAE7049B002BB5D1D2E7049B002BC6D130
:10395C000024EDE7002399469AE7C046F0B5DE4611
:10396C004E4645465746E0B5050085B01C0002930F
:10397C000EAB1878002301922A688346D366013374
:10398C0051600F9ED366002C63DD631E99460123A4
:10399C00584082460024002E03D001211098B047D5
:1039AC002A6880235B009C461300516F1029FCD0C1
:1039BC000020002C01D1287980024946671A7942EF
:1039CC007941574639404902014360460143116130
:1039DC00002E28D080224027904608E00021109825
:1039EC00B047002837D12B689A6F002A13D1424672
:1039FC009A585A6B1742F1D0002110985B6DB04762
:103A0C00C4435B4620002B7105B0F0BCBB46B246EC
:103A1C00A946A046F0BD1B69019A1355029B0134BF
:103A2C00A342BAD1EDE7802040211358536B1942C1
:103A3C0003D00124536D6442E3E7936F002BF4D061
:103A4C001369019A1355029B0134A342D9D02A68F9
:103A5C00AAE70024D5E702246442D2E7F0B5D646A3
:103A6C004F4646468246C0B505200C00FEF76EFE5A
:103A7C000500600821004019FFF788FA47003F183D
:103A8C00060005213800FFF781FAA0461C4B321ABC
:103A9C00040068009146401998452BD81949FFF746
:103AAC0075FA0130534600221B68DA661968043235
:103ABC00514002320A408021490159180A604A4695
:103ACC00DA6101221C624F2F00D92209A0215A5021
:103ADC00DA6F310050400C4A00049A18000C106048
:103AEC0001222800DA66FFF751FAE0BCBA46B1466B
:103AFC00A846F0BD0549FFF749FA0130D2E7C046A8
:103B0C003F420F00809698007C10000040787D01A9
:103B1C000F4A70B5821A531E9A410E4BD2000832CE
:103B2C001A600D4B0D4C1A60150023689D432B1E1B
:103B3C00FAD166240268FF340571D5661460633CC3
:103B4C008833FF3CD5639563D450FFF787FF70BD76
:103B5C00C047002000E0004000F0004008C00040DA
:103B6C00F0B5CE46474680B589B01E0004AC10AB0C
:103B7C001D7881461700129A139B20008846FEF789
:103B8C00CDFC330001903A00414648460294009522
:103B9C00FFF734FE09B0C0BCB946B046F0BDC04614
:103BAC00F0B5CE46474680B589B01E0004AC10ABCC
:103BBC001D7881461700129A139B20008846FEF749
:103BCC00ADFC330001903A00414648460294009502
:103BDC00FFF7C4FE09B0C0BCB946B046F0BDC04644
:103BEC007047C046030084469B070BD0030003219B
:103BFC0002E001330B4206D01A78002AF9D1624652
:103C0C00981A7047030019680C4A0D488A188A43A1
:103C1C0002420FD15968094A04338A188A43024276
:103C2C0008D15968054A04338A188A430242F1D0F4
:103C3C0000E001331A78002AFBD1E0E7FFFEFEFE1C
:083C4C0080808080F8B5C046BD
:103C5400E021F0B5D6464F464646614AC90113688D
:103C6400C0B50B405F4904000B60F02310681B03D0
:103C74004340F820400303400B605B4B012019686C
:103C84005A4BB4254B405A496D000B405949B5264F
:103C94000B60F823DB011361FFF770FD6055012011
:103CA400FFF76CFD6A23FF33E054A0209A46635D5E
:103CB400514FDA0251493A4076001143A25DC005E2
:103CC40014329B011B1812014D48A21818605A6047
:103CD40008229A60D96001239146625D01219340D4
:103CE400484A0B201360FDF7BBFE0B204649FDF745
:103CF400C9FE4946A423454A0420D150444B1960C7
:103D0400444B19009846FDF7BDFEFF210420FDF742
:103D1400C7FF01210420FDF7A3FE5346E35C3E4A9E
:103D2400D90239400A43A0219B01C9055B1800212F
:103D340019603A495960022199601A614A46384B20
:103D44001A603E23FF33E25C032A13D0E25C022AAA
:103D5400F9D100210420FDF783FEA42308212B4A76
:103D64000420D1504146FDF7B7FEE0BCBA46B14647
:103D7400A846F0BD00220121E254625D2948914029
:103D84000A00A021C9050A50A020A25D615D143279
:103D9400C005120189010918A218CA625146A25D20
:103DA400615C5832920089010918A218CA63F8218B
:103DB400E0270B4A490310688C4608400949FF0173
:103DC40008601068384008601068F022120342400E
:103DD400604602400A600821114A1160B3E7C046F8
:103DE40000C0044000D0044008C0044009000001A1
:103DF4000F00000F08D00440FF7FE0FF25001200F1
:103E04000CC0044004240050990800200000054020
:103E1400A8200540110100201500080008C0034037
:103E240000E004400C040000F0B5DE464E46574660
:103E34004546E022E14BE0B51B68D2011340E04A5D
:103E440087B013600322DF4B04001E680593731CC4
:103E54001A409346DA0700D49FE2D022802112064A
:103E6400490451619B0700D491E2D02380221B06B0
:103E740092045A61B5214900635C01229A460123E8
:103E84009846504643461B1AB4201700635440001A
:103E9400235C9F40A0233D00CB4FDB05DD51A025D3
:103EA400635C205C1433ED051B0180014019E318A9
:103EB400C362635C6A21FF31615C58339B008901F2
:103EC4004919E318CB63F30FF1180A40D51A534686
:103ED4001901611808008023BC4F4F30BC46FF30E5
:103EE40002889B0004951D00D3189BB29B0ADB003B
:103EF400D3189205920D624457427A419200B44F0E
:103F04009B189BB27B43DA0C0280A02040000092F5
:103F14000A5A53199BB29B0ADB00D3189205920DDF
:103F2400624415006A426A4192009B189BB27B432B
:103F3400DD0C0D5208008023AC46A44D4930A9463F
:103F4400FF3002889B00D3189BB29B0ADB00D31876
:103F54009205920D4A4415006A426A4192009B18E8
:103F64009BB27B43DA0C80230280063802920288DB
:103F74009B00D3189BB29B0ADB00D3189205920DC9
:103F84004A4415006A426A4192009B1880229BB2FF
:103F94007B43DB0C0380083003930300008892000A
:103FA400821892B2920AD20082188005800D484489
:103FB4000500684268418000101880B27843049D6F
:103FC400C00C1880834B0190A800C258009F1501B3
:103FD400AA1A3D0152191211C2508025C25827183D
:103FE40086202D011211AA1A40003A50039B019811
:103FF400B9461B188B278A20029A774D62445219BE
:104004005B1952105B1040007F0052425B42E25346
:104014002352E35BA2691BB2704FD2185743226A42
:104024001D0093049B1ADB019B189B009B181B012A
:104034009B185B009B18FA188B2763699213A36182
:10404400E3697F006561E2612362E253235AA26857
:104054001BB29C46614F6244574322690C2593046A
:104064009B1ADB019B189B009B181B019B185B0090
:104074009B18FA1863689213A36063466360E3684D
:10408400E2602361225285220C38235C5200A3543F
:104094000A22FF32A35CFF356355D02345461B0635
:1040A4009C465B684D315B07DB0F6B4023546346D2
:1040B40040465B68FF311B07DB0F4340A354484B6A
:1040C400B2009446D2583E3690460A88414640464D
:1040D400C901091A120152186146D211CA50CB58AB
:1040E400B6001B1133518223FA225B00E15892007F
:1040F400E6580123914200DC00233A4901228E4212
:1041040000DC00229B183C22374EFF32A354326855
:10411400002A02D09E225200A3549D235B00E35C3C
:10412400002B00D084E0314B98462368304A1B684A
:104134002000934200D028E1FCF75CF9F2235146B9
:104144008020E35A58315B421A1C1BB289000001DB
:10415400834201DB274B1A1C274B10B2984200DA2A
:104164001A1C80231B019C46C02362449B011343F9
:104174000B5353469D00F423E35A65195B426335A0
:104184001A1C1BB2FF35634501DB1A4B1A1C1A4B70
:1041940011B2994200DA1A1C80231B01D218174B62
:1041A40013432B805A463E25059BFF351A60635DF9
:1041B400DAB2012B00D10AE122E0C04600C004407B
:1041C40000D00440BC4B00200C04000001FEFFFFA3
:1041D4009DF00700A44B002000F0FFFFAE3F00005D
:1041E400AC4B0020B80B00002C4700209C4B002057
:1041F40015020020FF07000000F8FFFF00B0FFFFDA
:1042040043461A680F2301321340424613603C238D
:10421400FF33E25C0133E2543368002B01D0013BED
:10422400336007B0F0BCBB46B246A946A046F0BD19
:104234007E4B98461B68002B00D1B4E01A000E3A5E
:10424400012A64D8E125ED00AC4692214846009D40
:1042540049006545AD4142586D42520052194250E1
:104264000F2B54D18E25019A6D006245804163590C
:1042740096275B001B1A90206351029B4000634504
:104284009B4122587F005200D21A22508422E359C3
:104294005200A25C5B009B18E35198230A225B0046
:1042A4009C46FF32E358A25C5B009B186246A35015
:1042B4005F4B62591B689A1A551EAA419A256D00D4
:1042C400625522589A1A501E82413620FF302254D9
:1042D40062589A1A511E8A419B21490062549422C1
:1042E4005200A2589A1A511E8A413821FF31625451
:1042F400E2599A1A511E8A419C214900625462462D
:10430400A258D31A5A1E93413A22FF32A3549A2335
:104314005B00E35CDAB2002B02D11533FF33E252C7
:104324003623FF33E35CDAB2002B02D11733FF33B9
:10433400E2529B235B00E35CDAB2002B02D10D3323
:10434400FF33E2503823FF33E35CDAB2002B02D1AF
:104354001133FF33E2509C235B00E35CDAB2002BA1
:1043640002D10933FF33E2543A23FF33E35CDAB278
:10437400002B00D0D9E60A23FF33E25423682D4AE8
:104384001B682000934200D1D6E69847D6E6D02396
:1043940080221B0692049A616CE5D02280211206C9
:1043A400490491615EE5244A244B11684B43244936
:1043B4005B181360D90F002B33DBD02310221B06AC
:1043C4009A611B4A13685B005B1813609FE708211E
:1043D4001C4B1D481960F821036849030B401B4915
:1043E4000B600368E020C00103400B60B4235B0052
:1043F400E15CA0208A401649C0054250E05CFFF70A
:10440400CDF96A23FF33E05CFFF7C8F900210B20E4
:10441400FDF726FB0B200F49FDF75EFB02236355D6
:10442400EEE6D02310221B065A61CAE79C4B0020FB
:10443400A04B002015020020304700200D66190013
:104444005FF36E3C00F0044000C0044000D0044020
:104454000C04000099080020F0B5C646160000B50B
:1044640004001F000268EFF3108172B61368002B7A
:10447400FCD0BFF35F8F0423E3562268002B2BDBB1
:10448400BFF35F8F0020106081F31088D0221206E2
:104494001278002552B290469A420ED1002080BC78
:1044A400B846F0BDBFF35F8F156081F3108830000C
:1044B4003900FDF79FFF0028F0D12268EFF3108147
:1044C40072B61368002BFCD0BFF35F8F2379226888
:1044D4007F2BE7D9434602E0D0231B061B682371D8
:1044E400BFF35F8F0023136081F310880120D6E7A8
:1044F4000268EFF3108172B61368002BFCD0BFF38F
:104504005F8FFF2303710368BFF35F8F00221A607C
:1045140081F3108840BF7047084B9C461B78002BE2
:104524000BD18023064807495B051A68C25004333F
:104534008B42FAD101236246137070473A4D002032
:10454400C84B00100001001010B5014B984710BD76
:10455400C94B0020064B5A6802609A684260DA68C8
:1045640082601A69C2605A6902619B69436170473B
:10457400000002400268064B5A6042689A608268F2
:10458400DA60C2681A6102695A6142699A617047C5
:1045940000000240034B1A68C0239B009343024A65
:1045A400136070470C8001400C900140054B1A6861
:1045B40080239B005340C02292001340024A1360A0
:1045C4007047C0460C8001400C900140F0B5D646BF
:1045D4004F4646460023C0B5182786B01E008146C4
:1045E4000D00988A3F493B88140098473B888046D1
:1045F4003D49B08A984700233C490600988A3B8885
:1046040098478246FFF788FF6846FFF7A3FFC04735
:10461400B047FFF7CBFF211E1CD00823C0209C46C7
:104624004005163F6246836A1A401F4234D0631A1B
:10463400002926D1002A0BD1002C0BD0C02308223C
:1046440002265B059B6A1A401E423DD0002AF5D023
:10465400002C2BD1FFF79EFFD047FFF775FF68466C
:10466400FFF788FF06B0E0BCBA46B146A846F0BDE5
:10467400002C2BD1C0225205966A08223240B6077C
:104684002BD50D2B19D9002AF2D1C0225205966AD6
:1046940008223240B607F4D4002A04D10B00234385
:1046A400002BBFD1D6E70B00002CF9D0036E013CE0
:1046B4002B70230001350B43F2E74B461B7801397D
:1046C400036601239944E7E70021E5E7C0235B057E
:1046D4001B6E013C2B700135A4E70B00A242DFD115
:1046E400DCE7C04649460000455800004643000048
:1046F40053797374656D20636C6F636B206F6620F0
:104704002575206B487A2063616E6E6F7420626534
:104714002065786163746C79206163686965766586
:10472400640000000A2A2A2A2050414E4943202AC4
:104734002A2A0A000A0000004861726477617265DF
:1047440020616C61726D20256420616C7265616406
:104754007920636C61696D6564000000486172646E
:10476400206173736572740052656C6561736500D2
:10477400626F6F74325F7732357130383000000009
:10478400322E322E300000007069636F000000008A
:104794006475616C5F7175616E745F706974636870
:1047A400000000004D61792031362032303236006D
:1047B4004E6F20444D41206368616E6E656C7320BA
:1047C40061726520617661696C61626C65000000EC
:1047D40007000000070000000500000005000000BD
:1047E4000600000006000000C4460020BC4600206D
:1047F400B4460020AC460020A44600209C4600207D
:1048040000000000000000000000000000000000A4
:104814000000000015020020008000009C870000BA
:10482400AC8F00003798000045A10000DCAA00000E
:1048340005B50000C8BF000030CB000045D700001C
:1048440012E40000A2F1000000000100390F010091
:10485400591F01006F3001008A420100B855010060
:104864000A6A0100907F0100609601008AAE01008F
:1048740024C8010044E30100000002000002040611
:10488400080A000000030506070A000000030507E4
:104894000A000000000204070900000000020305EA
:1048A40007080A000002040507090B000A0B0C0D97
:1048B4000E0F000006005250D3F0754288450020C8
:1048C40006005250E182887F904500200600525035
:1048D400ABB36053A045002006005250BBFF3CB66A
:1048E400A845002006005250861C0302B045002053
:1048F400060052505422A29DC44500200500525087
:10490400DE65F468F84900100D0A00000800000094
:10491400010000000000040000000400100000007A
:104924000000000000000100000000000000000082
:10493400000002000000000000000000000003006E
:1049440000000000000000000000FF000000000064
:1049540001B5486801318E4600477046093801495F
:10496400884701BDE91A0020000000000000000093
:1049740000000000000000000000000018480020B3
:10498400503300004C330000543300005233000015
:104994004D5300004D4300005334000043340000E5
:1049A400004004400000000000000000000000007F
:1049B400392B0020652B00204D2D002005310020CF
:1049C400F92D002059300020752C0020812B002067
:1049D400A12B0020B52B0020AD1B0020BD2B0020F7
:1049E400211F0020012B0020391800200934002049
:0449F400ED000020B2
:04000005100001E9FD
:00000001FF
